:100000000C94DF010C9426020C9426020C94260218
:100010000C9426020C9426020C9426020C942602C0
:100020000C9426020C9426020C943D1C0C940F1D7B
:100030000C9432160C9426020C9426020C94260280
:100040000C9426020C9426020C9426020C94260290
:100050000C9426020C949A160C9426020C942602F8
:100060000C9426020C9426020C9426020C94260270
:100070000C9426020C9426020C9426020C94260260
:100080000C9426020C9426020C9426020C94260250
:100090000C944A040C9426020C9426020C9426021A
:1000A0000C9426020C9426020C942602AB05AD0596
:1000B000B805AF05B105B305B505B705BA05BC056B
:1000C000BE05C905C005C205C405C605C805CB05E2
:1000D000100C100C420C420C800CC20DC20DC20D53
:1000E0009E0CC20D410D410DB20DC20DC20DBB0DD6
:1000F0004E0D4E0D4E0D4E0D4E0D4E0D4E0D4E0D28
:100100004E0D4E0D4E0D4E0D4E0D4E0D4E0D4E0D17
:100110005F0D6D0D740D7B0D850D4F0E4F0E610E35
:10012000610E580E610E610E610E4F0E4F0E5D0E88
:10013000610E610E5D0E2D1723173B17831787176E
:1001400087178317871787175C1787176617701726
:1001500087178717871787178317871787178317B7
:1001600087174917871787178017801780178017F9
:1001700080178017801780178017851787172D170E
:1001800020178717871787178717871787178717E6
:100190008717871787178517871787178317871775
:1001A0007E177E177E177E177E177E177E177E17A7
:1001B0007E1785177C1DA31D9B1EA31D9B1EEF1D77
:1001C000121E9B1E691E781E290000003A003B008B
:1001D0003C003D003E003F0035001E001F00200097
:1001E00021002200230024002B002B0014001A0001
:1001F0000800150017001C00390039000400160023
:10020000070009000A000B00E100E1001D001B00CF
:100210000600190005001100E000E200E3008B0079
:100220002C002C002C002C00400041004200430018
:100230004400450049004C002500260027002D0001
:100240002E0089002A002A0018000C00120013005A
:100250002F003000280028000D000E000F00330092
:100260003400310028002800100036003700380024
:1002700087005200E500E5008A008800E600E400FF
:10028000500051004F0000000403300000000E0336
:10029000410044004B0042003900360000001C03BE
:1002A0004200690074002000540072006100640084
:1002B000650020004F006E00650000000403090483
:1002C00009023B00020100A0FA0904000001030139
:1002D00001000921110100012240000705810308E6
:1002E000000A0904010001030000000921110100B6
:1002F000012271000705820320000A12011001008B
:10030000000008A50096AD010001020301050109E6
:1003100080A10185031601002603001A81002A83AB
:1003200000751095018100C0050C0901A10185042B
:10033000160100269C021A01002A9C0275109501E4
:100340008100C005010906A1018505050719E029FD
:10035000E715002501950875018102050819012995
:100360000595057501910295017503910105071920
:100370000029EF1500250195F075018102C00501E6
:100380000906A101050719E029E7150025019508CF
:10039000750181029501750881010508190129057A
:1003A00095057501910295017503910105071900E5
:1003B00029FF150026FF00950675088100C011244D
:1003C0001FBECFEFDAE0DEBFCDBF04B603FE27C00D
:1003D0008091450290914602A0914702B091480257
:1003E0008730904BA740B04BD1F410924502109249
:1003F0004602109247021092480214BE84B7877FCB
:1004000084BF0FB6F894A8958091600088618093AE
:100410006000109260000FBEE0E0F8E3099511E083
:10042000A0E0B1E0E2E3FEE302C005900D92A2324B
:10043000B107D9F722E0A2E2B1E001C01D92A534D4
:10044000B207E1F70E9467190C94171F0C94000083
:1004500008950C9428020C942802CF93DF93809186
:10046000FC01836088608093FC01A6E1B1E04CE16F
:1004700051E061E070E08D91E82FE295EF70F0E0DF
:1004800021A18F70EB0102C0CC0FDD1F8A95E2F72E
:10049000CE019C2F9095922391A392A1892B82A3A8
:1004A0004A175B0741F7AEE0B1E046E151E061E099
:1004B00070E08D91E82FE295EF70F0E021A18F7050
:1004C000EB0102C0CC0FDD1F8A95E2F7CE019C2F15
:1004D0009095922391A392A1892B82A34A175B073F
:1004E00041F7559A209AE2E2F1E0AFE2B1E08EE204
:1004F00091E011921D928E179F07D9F7DF91CF914E
:100500000C94DF042F923F924F925F926F927F92F2
:100510008F929F92AF92BF92CF92DF92EF92FF9213
:100520000F931F93CF93DF9300D000D0CDB7DEB7EA
:1005300080910001811103C006E010E002C000E0DC
:1005400010E086E1C82E81E0D82E9801215D3E4F53
:1005500079019CE1892E91E0992E3C832B83AA247A
:10056000A394B12C772473946B817C81DB015C9024
:100570001C92F60181916F01E82FE295EF70F0E097
:1005800021A18F70A50102C0440F551F8A95E2F783
:10059000CA01242B21A322A1642E6094262122A328
:1005A00050EA5A95F1F7AEE0B1E0BA83A98320E0B2
:1005B00030E0A981BA813D90BA83A983432D429549
:1005C0004F7050E0DA0190962C90AB81BC814C903A
:1005D000432D4F70D50102C0AA0FBB1F4A95E2F709
:1005E000AD01422141F45A2D022E01C0550F0A944B
:1005F000EAF7452F01C040E04429AB81BC814C9310
:100600002F5F3F4F28303105A1F691A1692261A2E9
:1006100092A1892B82A31196BC83AB83FB018081BD
:10062000581641F070923B010E94641690933D0170
:1006300080933C018C149D0409F096CF80913B017E
:100640008823A9F080913C0190913D010E94701691
:10065000069768F0F801EE5DFE4F80E0D7019D91AE
:100660007D0191938F5F8630C9F710923B0181E045
:100670000F900F900F900F90DF91CF911F910F91DE
:10068000FF90EF90DF90CF90BF90AF909F908F90B2
:100690007F906F905F904F903F902F900895EF92D2
:1006A000FF920F931F93CF93DF93809100018111ED
:1006B00003C000E010E002C006E010E082E30E9408
:1006C000F203C82FD0E0209749F580E00E9425046E
:1006D000C82FD0E0209711F583E30E94F203C82FC2
:1006E000D0E02097D9F4E801CE5DDE4F00E010E0C5
:1006F0007E0181E090E00E94340489930F5F1F4FD8
:1007000005301105B1F780E090E00E943404F70154
:1007100085830E94190480E090E003C00E94410498
:10072000CE01DF91CF911F910F91FF90EF9008952F
:10073000CF930E948202C82F0E944F03892BD9F0C9
:100740005D9880912E018F5F80932E018630B0F0EE
:1007500080910001811103C0E0E0F0E002C0E6E01A
:10076000F0E0EE5DFE4F80E090E011920196863061
:100770009105D9F703C05D9A10922E010E94E704FB
:100780008C2FCF9108950E948202809100018111E7
:1007900003C0E6E0F0E002C0E0E0F0E0EE5DFE4F16
:1007A00080E090E02191DC01AE5DBD4F2C9301967D
:1007B00086309105B9F70895E82FF0E0EE5DFE4F21
:1007C00080810895089583E390E02091BC0027FD87
:1007D00002C00197D1F708951092B9008CE0809380
:1007E000B8000895CF93C82F84EA8093BC000E947C
:1007F000E3038091B900887F883039F08091B90097
:10080000887F803111F081E012C0C093BB0084E882
:100810008093BC000E94E3038091B900887F8831F7
:1008200029F08091B900887F803469F780E0CF910A
:10083000089584E98093BC0083E390E02091BC009C
:1008400024FD02C00197D1F708958093BB0084E88E
:100850008093BC000E94E3039091B900987F81E0EF
:10086000983209F480E0089526E0880F991F2A95B0
:10087000E1F784688093BC000E94E3038091BB0091
:1008800008951092BC0008958093BA0085EC80937F
:10089000BC0008951F920F920FB60F9211248F93F0
:1008A0009F93EF93FF938091B900887F803869F020
:1008B00038F48823C9F18036C9F510923E0136C05C
:1008C000883A09F1883BF9F031C080913E018111ED
:1008D00011C08091BB0080933F0180913F01803126
:1008E00020F010923F0180E001C081E091E0909300
:1008F0003E011DC0E0913F01F0E08091BB00EE5D44
:10090000FD4F808308C0E0913F01F0E0EE5DFD4FB8
:1009100080818093BB0080913F0190E001968F70B1
:10092000992780933F0102C01092BC0081E0909112
:10093000BC008295880F880F807C9568892B8093F6
:10094000BC00FF91EF919F918F910F900FBE0F9080
:100950001F901895E8EDF0E08081806180838AE146
:100960008A95F1F700C08091D900817008950E94A6
:10097000AA04809300010E94AA04882319F00E940F
:10098000EC0305C00E945B1682E30E944404789445
:1009900008950E942D020E94C303FDCF0E94B70458
:1009A0000E94AA04811102C00E94C90408950C94F7
:1009B000290281E0089581E008950C94DB040E94EF
:1009C000D114811102C00E944B150C94D7040C94D1
:1009D0002B0208950C94E9040C94EA0408950E94F3
:1009E0003D0E0E94EE042FEF84E39CE021508040F6
:1009F0009040E1F700C000000C94C016FF920F93E6
:100A00001F93CF93DF938C01FC01C081D181809132
:100A10005A01811113C08281882349F0CE010E94BE
:100A20009F13F82E682FCE010E94481304C0CE01F8
:100A30000E947313F82EBE018F2D04C0CE010E94B8
:100A40009F13BE010E947F06EC01B8010E94DD04E5
:100A5000882309F449C1C73DFCE5DF0709F4ABC0B1
:100A6000B0F4C531ECE5DE0768F4C230FCE5DF0721
:100A700008F04FC0C1158CE5D80701F1C130DC4545
:100A800029F125C1C631DC4509F4FAC020C1CC3DAD
:100A90008CE5D80771F150F4C83DFCE5DF0709F497
:100AA000ADC0C93DDC4509F4D0C011C1CD3DECE578
:100AB000DE0731F1CE3DDC45A1F009C1F8018281AC
:100AC000882309F411C10E94EF040EC1F80182814C
:100AD000882309F409C18091FC0181608093FC01A5
:100AE00003C1F8018281882309F4FEC00E944B15DE
:100AF000FBC0F8018281882309F4F6C080E006C0BB
:100B0000F8018281882309F4EFC082E00E94041A70
:100B1000EBC0F8018281882309F4DEC00E94D11461
:100B2000811102C00E944B150E94E41490E0909342
:100B3000370280933602FE01E350FC45E231F105B5
:100B400030F4EA5AFF4F809136020C94CF1E809108
:100B50003602816027C0826025C0846023C0806126
:100B600021C080621FC080641DC080681BC084607B
:100B7000886018C08E7F16C08D7F14C08B7F12C016
:100B80008F7E10C08F7D0EC08F7B0CC08F770AC008
:100B90008B7F877F07C087FB222720F991E0922770
:100BA00090FB87F980933602809136020E94E81408
:100BB0000E943D0E99C0F8018281882351F0109265
:100BC00045010E946416909342018093410182E0A6
:100BD00022C08091450181110FC080914101909107
:100BE00042010E9470168436910530F486E20E941C
:100BF0004C0A86E20E946E0B82E024C0F8018281DA
:100C0000882361F0109246010E946416909344017B
:100C10008093430180E20E94CD0B66C08091460123
:100C200081110FC080914301909144010E94701680
:100C30008436910530F487E20E944C0A87E20E94D4
:100C40006E0B80E20E94D40B4FC0F80182818111AB
:100C5000D9CF809146018111F4CF809143019091C9
:100C600044010E9470168436910558F780E20E9474
:100C7000D40B88E20E944C0A88E20E946E0B34C0BA
:100C80000E942014982FF801828120910101309157
:100C90000201882379F09A7A81E009F480E0809358
:100CA0004001911102C069E201C065E3C9010E94DF
:100CB000B3150AC080914001811102C069E201C0F0
:100CC00065E3C9010E94BE150E946E140DC081E04B
:100CD0008093450180934601C801DF91CF911F9118
:100CE0000F91FF900C94D90480E0DF91CF911F9178
:100CF0000F91FF90089580E090E008950895E72F08
:100D0000F0E09CE0899FE00DF11D112483E0EE0FDF
:100D1000FF1F8A95E1F7E60FF11DEE0FFF1FE85365
:100D2000FE4F859194910895880F991FFC01E85713
:100D3000FD4F859194910895CF93DF930E947F0694
:100D40000E945808EC018115904508F041C0C1157A
:100D500080E4D80708F028C1C83ED10510F5C03E90
:100D6000D10508F0A1C1C83AD10578F4C53AD1053A
:100D700008F0A2C0C130D10509F496C108F447C1FA
:100D8000C430D10508F090C142C1CF3BD10508F471
:100D90009EC0C03CD10508F43AC1CE01805C9109E7
:100DA000F5C0C11590E2D90758F4C11521E0D2076A
:100DB00008F07AC1C03FD10508F429C1D06574C1DB
:100DC000C11580E3D80708F0E5C0CE019F70DEC0F2
:100DD000C11595E5D90708F043C0C11524E5D20730
:100DE00008F0F9C0C11582E5D80708F5C11591E5ED
:100DF000D90708F0DCC0CE0174E0969587957A9506
:100E0000E1F783709C2F937021E030E002C0220F45
:100E1000331F9A95E2F73C68382BCF70C695C6957C
:100E200080E2C89FE0011124C22BD32B3DC19E015B
:100E3000237033278C2F86958695C115D34508F0EE
:100E4000BBC0C1E0D0E002C0CC0FDD1F2A95E2F7A5
:100E500020E2829FC0011124C82BD92BDC6824C159
:100E6000C11529E5D207A0F4C11588E5D80708F017
:100E7000B7C0C11596E5D90708F0C9C08C2F0E94EC
:100E8000D4088F71C82FD0E0DC2FCC27D0620CC1E2
:100E9000C1152AE5D20708F4A8C0CE0190568115E5
:100EA000904208F0B4C08D2F8F710E94D408DD27C6
:100EB000D0628F71D82BF8C0C53AD10509F4AAC009
:100EC000C63AD10509F0A9C0C2E8D0E4EDC0C83ADD
:100ED000D10509F4A5C0C93AD10509F4A4C0CA3A9C
:100EE000D10509F4A3C0CB3AD10509F4A2C0CC3A8C
:100EF000D10509F4A1C0CB3BD10509F4A0C0CC3B7E
:100F0000D10509F49FC0CD3AD10509F49EC0C03B7C
:100F1000D10509F49DC0CE3AD10509F49CC0CF3A61
:100F2000D10509F49BC0C13BD10509F49AC0C23B6D
:100F3000D10509F499C0C33BD10509F498C0C43B5D
:100F4000D10509F497C0C53BD10509F496C0C63B4D
:100F5000D10509F495C0C73BD10509F494C0C83B3D
:100F6000D10509F493C0C93BD10509F492C0CD3B2A
:100F7000D10509F491C0CE3BD10509F490C0CA3B1C
:100F8000D10509F48FC0C0E0D4E48EC00E9494065D
:100F9000EC018AC0CE019927D3FF03C0EC01D86CC5
:100FA00083C0EC01D06C80C0DF70D06A7DC0DC2FC4
:100FB000CC27C16FD06A78C0C1E0D0E002C0CC0FAE
:100FC000DD1F2A95E2F720E2829FC0011124C82B81
:100FD000D92BDA6869C0DC2FCC27C46FD06A64C013
:100FE000DC2FCC27C06FD06A5FC08C2F8F700E941F
:100FF000D40894E0D695C7959A95E1F7CF70D0E0E4
:10100000DC2FCC27D06A8F70806EC82B4DC0C0E01B
:10101000D0E04AC0C1E8D0E447C0C3E8D0E444C04F
:10102000C2EED4E441C0C9EED4E43EC0CAEED4E47A
:101030003BC0C5EBD4E438C0C6EBD4E435C0C3EB49
:10104000D4E432C0C4EBD4E42FC0C7EBD4E42CC04A
:10105000CCECD4E429C0CDECD4E426C0C3E8D5E47C
:1010600023C0CAE8D5E420C0C2E9D5E41DC0C4E964
:10107000D5E41AC0C1E2D6E417C0C3E2D6E414C076
:10108000C4E2D6E411C0C5E2D6E40EC0C6E2D6E49E
:101090000BC0C7E2D6E408C0CFE6D4E405C0C0E781
:1010A000D4E402C0CAE2D6E4CE01DF91CF91089524
:1010B0008238910549F1B0F48133910509F459C0A2
:1010C00048F48932910509F44FC08A32910509F438
:1010D00055C008958533910509F441C089339105C0
:1010E00099F00895833E910531F138F4803E9105E1
:1010F00091F0823E9105A9F00895863E910501F197
:10110000873E910539F108952091360220FD3BC0BC
:1011100021FD39C008958091360280FF34C089E3F3
:1011200041C08091360282FF30C08091360284FD3A
:101130002EC083EE37C08091360282FD26C0F5CFE7
:101140008091360283FF25C08091360284FD1FC046
:1011500087EE28C08091360283FD1BC0F5CF8091B9
:10116000360285FD18C019C08091360285FD15C074
:1011700012C08091360286FD12C013C080913602E3
:1011800086FD0FC00CC080EE0DC082EE0BC080E06B
:1011900009C086EE07C089E205C085E303C08AE284
:1011A00001C081E390E008959091360292FF0DC056
:1011B000282F2871283019F4877F846006C0282FD3
:1011C0002471243011F48B7F886093FF0DC0282F89
:1011D0002871283119F4877E846106C0282F247174
:1011E000243111F48B7E886194FD877E089590935D
:1011F0004C0180934B010895E0914B01F0914C011B
:10120000309721F00190F081E02D099480E008955D
:10121000E0914B01F0914C01309799F020910D0134
:10122000222359F02091360227FF07C0DC012C91C0
:1012300011962C93119725E02C930280F381E02DD9
:10124000099408952091490130914A0128173907DE
:1012500071F090934A0180934901E0914B01F09124
:101260004C01309721F00680F781E02D0994089514
:1012700020914701309148012817390771F0909368
:10128000480180934701E0914B01F0914C01309768
:1012900021F00084F185E02D0994089585B78068D8
:1012A00085BF85B7806885BF089508950C9455095A
:1012B0000C9456090C9455090E944E090E94CE04C4
:1012C0000C94580981E008950E945B160E942D023B
:1012D0000E94E416E6E3F2E08081806880830C944B
:1012E0005A09BF92CF92DF92EF92FF920F931F9312
:1012F000CF93DF93CDB7DEB72A970FB6F894DEBF52
:101300000FBECDBF0E9498030E946209811111C0D7
:101310008FEF89838A831B820E9464168160782FF5
:101320009D838C8349815A816B818D810E94180A2B
:1013300054C08EE4C82E81E0D82E00E010E0B02E1C
:10134000802F0E94DC03E82EF60121916F01F82E18
:10135000F22631F40F5F1F4F0C30110581F7D8CF03
:101360008091FC0181FD0E94E20380E090E02F2D3E
:1013700030E0482FB901082E02C0759567950A9490
:10138000E2F760FF25C08E83BF8281E090E06C01B0
:1013900002C0CC0CDD1C4A95E2F72E2D30E02C214A
:1013A0003D21232B09F480E088870E946416816028
:1013B000782F9A8789874E815F8168858A850E9408
:1013C000180AF801E25BFE4F80818C25808305C0FE
:1013D00001968830910569F6BDCF0E94FC08909176
:1013E0004D018917A9F00E94FC0880934D012A96AF
:1013F0000FB6F894DEBF0FBECDBFDF91CF911F9126
:101400000F91FF90EF90DF90CF90BF900C94EC0481
:101410002A960FB6F894DEBF0FBECDBFDF91CF91F5
:101420001F910F91FF90EF90DF90CF90BF900895A4
:10143000CF93DF93CDB7DEB72B970FB6F894DEBF0F
:101440000FBECDBF4F83588769877A878B87DE01B0
:10145000119686E0FD0111928A95E9F785E0FE017B
:10146000379601900D928A95E1F749815A816B81F7
:101470007C818D819E810E940D112B960FB6F89470
:10148000DEBF0FBECDBFDF91CF910895FC018081FB
:1014900091810E94E1130895CF93882309F41CC120
:1014A000C82F8238C1F40E94FC0881FD15C169E390
:1014B00080910101909102010E94B3150E946E1467
:1014C0002FEF81EE94E0215080409040E1F700C082
:1014D000000069E319C0833801F50E94FC0880FD13
:1014E000FBC063E580910101909102010E94B31558
:1014F0000E946E142FEF81EE94E0215080409040C6
:10150000E1F700C0000063E58091010190910201C4
:101510000E94BE15CF910C946E148438C1F40E94C1
:10152000FC0882FDD9C067E480910101909102011D
:101530000E94B3150E946E142FEF81EE94E02150AB
:1015400080409040E1F700C0000067E4DDCF8CEF01
:101550008C0F813A68F48C2F0E948D178111BCC0CA
:101560006C2F80910101909102010E94B315D2CF9E
:1015700080E28C0F883048F4C77081E001C0880F8A
:10158000CA95EAF70E942314C5CF8BE58C0F8330F0
:1015900078F4C53A29F0C63A31F083E890E005C006
:1015A00081E890E002C082E890E0CF910C9422099B
:1015B00088E58C0F873108F08FC0C83A09F445C020
:1015C000C93A09F445C0CA3A09F445C0CB3A09F40E
:1015D00045C0CC3A09F445C0CB3B09F445C0CC3BEF
:1015E00009F445C0CD3A09F445C0C03B09F445C0F3
:1015F000CE3A09F445C0CF3A09F445C0C13B09F4DD
:1016000045C0C23B09F445C0C33B09F445C0C43BD7
:1016100009F445C0C53B09F445C0C63B09F445C0C3
:10162000C73B09F445C0C83B09F445C0C93B09F4B0
:1016300045C0CD3B09F445C0CE3B09F445C0CA3B8B
:1016400009F445C080E090E044C082EE90E041C0E3
:1016500089EE90E03EC08AEE90E03BC085EB90E0E2
:1016600038C086EB90E035C083EB90E032C084EB6D
:1016700090E02FC087EB90E02CC08CEC90E029C06C
:101680008DEC90E026C083E891E023C08AE891E0E9
:1016900020C082E991E01DC084E991E01AC081E296
:1016A00092E017C083E292E014C084E292E011C09D
:1016B00085E292E00EC086E292E00BC087E292E003
:1016C00008C08FE690E005C080E790E002C08AE2A3
:1016D00092E0CF910C943809CF910895882309F4B2
:1016E0005BC0682F823879F40E94FC0881FF54C0E7
:1016F00069E380910101909102010E94B3150E945B
:101700006E1469E310C08338B1F40E94FC0880FFB6
:1017100043C063E580910101909102010E94B315DD
:101720000E946E1463E580910101909102010E9474
:10173000BE150C946E14843879F40E94FC0882FF64
:101740002BC067E480910101909102010E94B315C2
:101750000E946E1467E4E7CF8CEF860F813A18F38E
:1017600080E2860F883048F4677081E001C0880FFE
:101770006A95EAF70E942914DCCF8BE5860F833047
:1017800020F480E090E00C942209685A673120F43C
:1017900080E090E00C9438090895882321F00E949D
:1017A00023140C946E140895882321F00E942914A8
:1017B0000C946E1408958F929F92AF92BF92DF9215
:1017C000EF92FF920F931F93CF93DF937C01D62F5D
:1017D000C72FFC01058102950F70128111110E9423
:1017E00040140E941914882379F0112369F080E2D3
:1017F0008D0F883048F082E00E94B8140E941914BE
:1018000091E0D82ED92601C0D12CBC2EB2948FE005
:10181000B8228B2D90E0FC01E859FF4F0C94CF1EAD
:101820008C2F807FCF70882311F0C295C07F112349
:1018300099F0CC2309F481C180E28D0F883010F03B
:10184000D11104C08C2F0E94231403C08C2F0E943E
:1018500033140E946E1471C18D2F0E946E0BCC2325
:1018600009F490C180E28D0F883010F0D11104C0CE
:101870008C2F0E94291403C08C2F0E9439140E94BF
:101880006E1480C18C2F807FCF70803211F0C29592
:10189000C07FDD2319F0D130C9F022C0112371F0CF
:1018A000002341F0013031F40E9453148C2B0E942C
:1018B0005B1468C10E9453148C2BF8C0002319F0EC
:1018C000013009F45FC10E94641418C0112321F093
:1018D000063008F057C10EC0053008F053C10EC0E5
:1018E000112351F0002331F0F701858180FF25C1DC
:1018F0008F7085838C2FDAC0011130C18C2FDCC032
:101900008C2F86958695837019F0813061F03AC1ED
:10191000112321F08D2F9C2F937002C080E090E066
:101920000E9422093CC1112321F08D2F9C2F93701E
:1019300002C080E090E00E94380931C18C2F837092
:1019400009F04CC0111127C12D2F22952695277023
:10195000220F220F6D2F6F70862F90E0A0E0B0E075
:101960004C015D01022E04C0880C991CAA1CBB1CF2
:101970000A94D2F7D4FF12C08FE090E0A0E0B0E06C
:1019800004C0880F991FAA1FBB1F2A95D2F7BC015C
:10199000CD01609570958095909503C060E070E0F2
:1019A000CB01C695C695C370C23051F080F468294A
:1019B00079298A299B29C13071F00E945E12EBC0FF
:1019C000682979298A299B290E947012E4C00E9403
:1019D0005E12C501B4010E944C12DDC0112319F042
:1019E0008C2F817001C08695882309F4D4C02D2FD7
:1019F000229526952770220F220F6D2F6F70862F4C
:101A000090E0A0E0B0E04C015D01022E04C0880C23
:101A1000991CAA1CBB1C0A94D2F7D4FF12C08FE0F9
:101A200090E0A0E0B0E004C0880F991FAA1FBB1F80
:101A30002A95D2F7BC01CD0160957095809590955F
:101A400003C060E070E0CB01C695C695C370C2309C
:101A500051F080F4682979298A299B29C13071F0D5
:101A60000E94231398C0682979298A299B290E94FA
:101A7000351391C00E942313C501B4010E941113B4
:101A80008AC08D2F90E0FC01E05EF109E531F1059F
:101A900008F04FC0E858FF4F0C94CF1EDF708C2F1A
:101AA0008F71112331F00E94AA128D2F0E94CD0B4D
:101AB00069C00E94CB128D2F0E94D40B63C01123EA
:101AC00041F0053008F05EC08C2F8F710E94F0123B
:101AD00059C0063008F056C0F7CF112339F08C2FCB
:101AE0008F710E94AA124EC01123C9F38C2F8F71DF
:101AF0000E94CB1247C0112329F08C2F8F710E94B6
:101B0000951240C00E9490123DC0112349F0CF7140
:101B10008C2F0E94AA1263E08C2F0E94A31432C063
:101B200081E00E94B814023068F182E00E94B8148B
:101B300029C0112331F0002391F28D2F0E944C0A0D
:101B400021C0002399F2D93349F4FFEF27EE83E057
:101B5000F15020408040E1F700C000008D2F0E942E
:101B60006E0B10C04C2F4F706D2FC7010E947B066B
:101B70000E94BB1114C04C2F4F706D2FC7010E94E3
:101B80007E060DC098E0B91631F0B91640F086EF28
:101B90008B0D823020F40E94FC080E94EC04DD20B2
:101BA000E1F00E94151480FD18C0F70112820E9416
:101BB0000F140E94AA12C7010E94F90D0E940F146F
:101BC000DF91CF911F910F91FF90EF90DF90BF9029
:101BD000AF909F908F900C94CB12DF91CF911F917B
:101BE0000F91FF90EF90DF90BF90AF909F908F90FC
:101BF00008950F931F93CF93DF93EC019881898110
:101C00002B813C81232B31F08F3F31F481E09F3FCA
:101C100019F403C081E001C080E080FD13C0CE0153
:101C20000E94FE04882371F0688179818A810E9474
:101C3000EC138C010E9447130E943812B801CE01A8
:101C40000E94DB0BDF91CF911F910F9108950E94AD
:101C500040140E9450140E946E1480E090E00E9494
:101C6000220980E090E00C94380980910101909164
:101C700002010E94C9150C94270E0E9430140C9486
:101C8000350EE92FE295EF704E2F50E0FA013297B2
:101C9000EE30F105B0F4E357FF4F0C94CF1E803FB8
:101CA00091F018F4803E68F40EC0843F51F40BC0EC
:101CB000803E48F0813F29F406C093FB882780F9D5
:101CC000089580E0089581E008950E94E1130E9444
:101CD000410E0895CF93DF9300D000D01F92CDB76F
:101CE000DEB70F900F900F900F900F90DF91CF9174
:101CF0000895CF93DF9300D000D000D0CDB7DEB7EA
:101D000026960FB6F894DEBF0FBECDBFDF91CF9100
:101D100008951F93CF93DF93C0915B0116E08091EC
:101D20005C01C81799F0D0E01C9FF0011D9FF00DD9
:101D30001124E35AFE4F4081518162817381848175
:101D400095810E94790E2196C770E9CFDF91CF91DE
:101D50001F91089540918D0150918E0160918F01E6
:101D60007091900180919101909192010C94790E63
:101D7000CF938091920182958F7009F05FC080911E
:101D80008F01882309F45AC080915B01B0915C01F6
:101D900070918D01A0918E0140919001509191011F
:101DA00091E07F3F09F090E0692FC6E08B1709F4BE
:101DB00045C04115510521F0AF3F21F020E003C09F
:101DC00021E001C0262F90E020FD35C0C89FF00122
:101DD000C99FF00D1124E35AFE4F21812A132BC015
:101DE0002081271328C02281211125C0238134811D
:101DF0002417350710F421503109241B350B2436E4
:101E00003105C8F4209192012F7020612093920136
:101E100026E0289FF001299FF00D1124EE59FE4F76
:101E200080818F70806180838DE891E00E94F90D40
:101E3000CF910C94890E01968770B8CFCF910895F9
:101E4000AF92BF92CF92DF92EF92FF920F931F93C8
:101E5000CF93DF93CDB7DEB761970FB6F894DEBFAF
:101E60000FBECDBF8C0185E0F801DE011D9601900B
:101E70000D928A95E1F7D8014C9111965C911197DA
:101E80001296EC9030918D0160918E0180919001BD
:101E900090919101009731F06F3F31F421E03F3F85
:101EA00019F403C021E001C020E0B22FB170BB2EB5
:101EB00020FD60C1F801C380D480A0908F01AA20CA
:101EC00009F4EEC020919201C816D90628F0D60177
:101ED000A81BB90BCD0104C0809590958C0D9D1D5C
:101EE000FF24F3948436910580F0F12C207F09F0D3
:101EF0009CC07C2DD98AC88A6E2D89890E946A0E61
:101F00008DE891E00E94F90D2DC1822F807F09F0AC
:101F100054C0561314C0431312C0FE2CE1100FC05E
:101F20002F702061209392010E94AA0E8DE891E00B
:101F30000E94F90D80919201F80185835CC1CD2842
:101F400031F05F3F31F481E04F3F19F403C081E08D
:101F500001C080E080FD03C081E08E2502C080E0EA
:101F600090E0F82FF170FF2E80FF1CC080915B0184
:101F700020915C0136E0821709F41AC190E0389F85
:101F8000F001399FF00D1124E35AFE4F6181561381
:101F900006C06081461303C06281E61203C0019649
:101FA0008770E9CFFE2CEE2009F425C180919201C3
:101FB000816080939201F12C1EC1561309C0431316
:101FC00007C0E11005C080919201F8018583A4C08B
:101FD0004D875E878D859E850E94650E882379F1E9
:101FE000EE2069F120919201822F82958F7090E00E
:101FF000029774F080918D0190918E0198878F8364
:102000001986DB86CA862C87CE0107960E94F90DB9
:1020100086E0F801ADE8B1E001900D928A95E1F714
:102020000E94B80E0E94AA0E0DC0561771F04D877F
:102030005E878D859E850E94650E81111AC0C8013C
:102040000E94F90DFF24F394D6C04313F0CFE110A2
:10205000EECF80919201F8018583C8010E94F90DAD
:1020600086E0EDE8F1E0DF011D928A95E9F7FA2CB0
:10207000C2C0EE2021F320919201822F82958F70B1
:1020800090E002972CF280918D0190918E019A83BD
:1020900089831B82DD82CC822E83CE010196B6CF4E
:1020A000C816D90628F0F601E81BF90BCF0104C0C9
:1020B000809590958C0D9D1D8436910548F0F12CEE
:1020C0007C2DD98AC88A6E2D89890E946A0E4AC0E1
:1020D000FE2CEE2009F4B3CF561333C0431331C0A6
:1020E0002091920120FD24C0822F82958F70482F6D
:1020F00050E041155105E1F0D80115962C93159744
:102100004F30510549F08F5F982F9295907F822F25
:102110008F70892B15968C93C8010E94F90D86E06B
:10212000F801ADE8B1E001900D928A95E1F73DC06C
:1021300086E0F801ADE8B1E001900D928A95E1F7F3
:102140005AC04D875E878D859E850E94650E8111E0
:102150005FCF80919201816080939201C8010E94BB
:10216000F90D49C0EDE8F1E086E0DF011D928A95A6
:10217000E9F71BC0EE2009F462CF4D875E878D859D
:102180009E850E94650EF82E882309F458CF86E0BC
:10219000F801ADE8B1E001900D928A95E1F78DE884
:1021A00091E00E94460A0E94B80E0E94AA0E23C027
:1021B0004D875E878D859E850E94E113292F22958C
:1021C0002F70223028F49F7039F0811105C00BC0A8
:1021D000243028F49F7049F4805E883020F0C801D4
:1021E0000E94F90DBF2CFB2C06C0D80115969C91BE
:1021F000907F91F7F8CF8F2D61960FB6F894DEBFE0
:102200000FBECDBFDF91CF911F910F91FF90EF9047
:10221000DF90CF90BF90AF9008951F93CF93DF933F
:10222000CDB7DEB72C970FB6F894DEBF0FBECDBF8B
:102230004F83588769877A878B879C87CE0107965B
:102240000E94200F8823D1F09F8188852A853B85B5
:10225000232B31F08F3F31F481E09F3F19F403C00D
:1022600081E001C080E080FD47C04F8158856985CD
:102270007A858B859C850E94790E3EC086E0FE01A2
:102280003796DE01119601900D928A95E1F7FF8154
:10229000E8856A857B856115710531F0EF3F31F482
:1022A00081E0FF3F19F403C081E001C080E080FDC0
:1022B00023C020915C0130E0C90101968770992705
:1022C00040915B0150E084179507F1F1F983EA83AF
:1022D0007D836C8396E0929FD001939FB00D112473
:1022E000A35ABE4FFE01319601900D929A95E1F7E7
:1022F00080935C010E94890E16E080915B019091B1
:102300005C01891771F1189FC0011124835A9E4FF7
:102310000E94200F882329F1E0915B011E9FF001AC
:102320001124E35AFE4F408151816281738184817F
:1023300095810E94790E80915B0190E001968770F3
:10234000992780935B01D9CF0E943D0E10925C01CA
:1023500010925B01EDE8F1E086E0DF011D928A95C5
:10236000E9F72C960FB6F894DEBF0FBECDBFDF9114
:10237000CF911F910895EF92FF920F931F93CF93E8
:10238000DF938C01892B09F46CC0F12CEE24E394CB
:10239000E8012196F8018491843740F4843008F0F4
:1023A00051C0813081F0823019F15BC0853709F46A
:1023B00044C0A8F19CE7980F903708F052C08F777F
:1023C0000E946E0B41C00E5F1F4FFE01849190E290
:1023D000980F983050F48770FE2D01C0FF0F8A953A
:1023E000EAF78F2F0E94431414C00E944C0A2DC09C
:1023F0000E5F1F4FFE01849190E2980F983060F4B9
:102400008770FE2D01C0FF0F8A95EAF78F2F0E947B
:1024100049140E946E1419C00E946E0B16C00E5F04
:102420001F4FFE01C491CC2381F08FE99FE00197FB
:10243000F1F700C00000C150F6CF0E5F1F4FFE0144
:10244000F49003C00E944C0A8E018F2D882309F45A
:102450009FCFEFE9FFE03197F1F700C00000815016
:10246000F5CFDF91CF911F910F91FF90EF900895DD
:10247000089508950C9439120C943A120E943C125B
:102480006093D3017093D4018093D5019093D601CA
:102490000C94270E0C943E120F931F930091D301BE
:1024A0001091D4012091D5013091D601602B712B70
:1024B000822B932B1F910F910C943E120F931F931D
:1024C0000091D3011091D4012091D5013091D60112
:1024D00060237123822393231F910F910C943E124A
:1024E0000F931F930091D3011091D4012091D50136
:1024F0003091D60160277127822793271F910F9172
:102500000C943E120C9439120E9482126093CF01F7
:102510007093D0018093D1019093D2010C94270E37
:1025200060E070E0CB010C9484120F931F9341E0A4
:1025300050E060E070E08A019B0104C0000F111FB1
:10254000221F331F8A95D2F7C901B8011F910F913D
:102550000C9484120F931F9341E050E060E070E010
:1025600004C0440F551F661F771F8A95D2F78091CC
:10257000CF019091D001A091D101B091D2018A01F7
:102580009B01082B192B2A2B3B2BC901B8011F914A
:102590000F910C9484120F931F9341E050E060E080
:1025A00070E004C0440F551F661F771F8A95D2F74D
:1025B00040955095609570958091CF019091D00194
:1025C000A091D101B091D2018A019B010823192366
:1025D0002A233B23C901B8011F910F910C94841247
:1025E0000F931F9341E050E060E070E004C0440F9F
:1025F000551F661F771F8A95D2F78091CF01909162
:10260000D001A091D101B091D2018A019B0108278C
:1026100019272A273B27C901B8011F910F910C9454
:1026200084120F931F930091CF011091D00120913C
:10263000D1013091D201602B712B822B932B1F91F2
:102640000F910C9484120F931F930091CF0110915E
:10265000D0012091D1013091D201602371238223D6
:1026600093231F910F910C9484120F931F93009149
:10267000CF011091D0012091D1013091D20160277A
:102680007127822793271F910F910C94841208952C
:1026900028E0929F800D1124E82FE695E695E695B7
:1026A000877051E001C0550F8A95EAF785E0E89FF1
:1026B000F0011124ED56FE4F20E030E070E0408143
:1026C000CB01022E02C0969587950A94E2F781709D
:1026D000819584278523842781932F5F3F4F253061
:1026E000310569F7089528E0929F800D1124682F25
:1026F000669566956695982F977085E0689FB001FE
:10270000112440E050E080E0FB01E40FF51FED569E
:10271000FE4F208130E0092E02C0369527950A949D
:10272000E2F721703327042E01C0220F0A94EAF742
:10273000822B4F5F5F4F4530510531F70895BF92AF
:10274000CF92DF92EF92FF920F931F93CF93DF937D
:102750008C01C090CF01D090D001E090D101F090D9
:10276000D2018091D3019091D401A091D501B09173
:10277000D601C82AD92AEA2AFB2ACFE1D0E0D7011C
:10278000C6010C2E04C0B695A795979587950A9417
:10279000D2F780FD04C0219790F7B12C07C0BC2E62
:1027A000B8018C2F0E949C060197A9F38B2DDF9115
:1027B000CF911F910F91FF90EF90DF90CF90BF903E
:1027C0000895CF93DF93EC010E949F13BE010E94F6
:1027D0009C06DF91CF9108951F93CF93DF93EB0178
:1027E00090915A01992321F0CB010E94E11313C06B
:1027F000882349F0CB010E949F13182F682FCE0128
:102800000E94481304C0CB010E947313182FBE010D
:10281000812F0E949C06DF91CF911F910895809196
:10282000D70185958595859508958091D701877005
:1028300008959091D701977081E009F480E00895A0
:102840008091FB0108959091FB01892B8093FB01FE
:10285000089580959091FB0189238093FB01089551
:102860001092FB0108959091FA01892B8093FA014F
:10287000089580959091FA0189238093FA01089533
:102880001092FA0108959091F901892B8093F90132
:10289000089580959091F90189238093F901089515
:1028A0001092F90108958091D801089508950C942B
:1028B00056140C9457149091D801981721F08093D6
:1028C000D8010C94591408958091D801882329F0D7
:1028D0001092D80180E00C9459140895E091010100
:1028E000F09102018091FB018083E0910101F09160
:1028F000020190818091FA01892B8083E09101018E
:10290000F091020190818091F901892B808380915F
:10291000D801882381F0E0910101F09102019081BA
:10292000892B808380910101909102010E944D15B5
:1029300081110E94641480910101909102010C9414
:1029400008090C94561498E0899F90011124262BB5
:102950002093D7010E94AA128091D7018595859571
:1029600085950C94A1141092D70180E00C94A114C9
:102970002091D701809582238093D701982F97705B
:1029800079F430E0482F082E000C550B241735073A
:1029900039F08595859585950E94CB120C94B314DA
:1029A000089580E090E00E94DD1E21E08D3E9E4F64
:1029B00009F020E0822F089582E090E00C94D51E6B
:1029C00083E090E00C94D51E84E090E00C94D51E3A
:1029D000682F84E090E00C94E31EAB01BC018FE013
:1029E00090E00C94F51EAB01BC0183E190E00C94E7
:1029F000F51E60E070E0CB010C94F31460E070E031
:102A0000CB010E94ED140C94F9146DEE7EEF80E082
:102A100090E00E94011F60E082E090E00E94E31ECF
:102A200060E083E090E00E94E31E1092D3011092D8
:102A3000D4011092D5011092D60160E084E090E0BC
:102A40000E94E31E60E085E090E00E94E31E60E0EB
:102A500086E090E00E94E31E6FEF87E090E00E9426
:102A6000E31E40E050E0BA0188E090E00E94F51ECD
:102A700060E08DE090E00E94E31E40E050E0BA018B
:102A800088E190E00E94F51E60E087E190E00E94FE
:102A9000E31E0C94FE140C940515FC0132968091F3
:102AA0000D01882331F08091360287FF02C09EE13C
:102AB00001C096E080E0915028F021912223D9F3C3
:102AC0008F5FF9CF08959C01FC0132969FEF80E063
:102AD0004191461789F09F3F19F4411101C0982F89
:102AE0008F5F8630A9F79F3F39F0F901E90FF11D9B
:102AF00097FDFA956283089508959C012A5F3F4FE0
:102B0000FC014281461301C012820196821793078D
:102B1000B9F70895262F2695269526952E3168F427
:102B2000FC01E20FF11D677021E030E001C0220FCF
:102B30006A95EAF78281282B22830895262F26950D
:102B4000269526952E3170F4FC01E20FF11D677079
:102B500021E030E001C0220F6A95EAF720958281DA
:102B600028232283089520910D01222329F020910A
:102B7000360227FD0C948A150C94631520910D01E3
:102B8000222329F02091360227FD0C949E150C94E7
:102B90007D1520910D01FC013296222331F08091A8
:102BA000360287FF02C08EE101C086E0DF011D9280
:102BB0008A95E9F7089508950C94DB150C94DB15BC
:102BC000CF930E94DE150E9498030E94DC15C0E09E
:102BD0008C2F0E94DC03811104C0CF5FCC30C1F781
:102BE00001C081E0CF9108950C94DB150C94F4158D
:102BF0000E94F61580913C02843049F11092FD014B
:102C000020E488E190E00FB6F894A89580936000E6
:102C10000FBE2093600080E00E94EC040E94F61535
:102C200083B7817F846083BF83B7816083BF7894DB
:102C3000889583B78E7F83BF0FB6F894A89580914F
:102C40006000886180936000109260000FBE08955C
:102C50000C94DB150E943D0E0E94FC080E94EC04BF
:102C60000C9428161F920F920FB60F9211248F9377
:102C70009F93AF93BF938091FD01811113C0809109
:102C8000320290913302A0913402B0913502419604
:102C9000A11DB11D8093320290933302A0933402A0
:102CA000B0933502BF91AF919F918F910F900FBE5E
:102CB0000F901F90189582E084BD93E095BD9AEF28
:102CC00097BD80936E0008952FB7F89480913202DB
:102CD00090913302A0913402B09135022FBF089534
:102CE000CF92DF92EF92FF920F931F932FB7F8943A
:102CF000409132025091330260913402709135025A
:102D00002FBF6A017B01EE24FF248C0120E030E01C
:102D1000C016D106E206F30610F4415051099A019B
:102D2000281B390BC9011F910F91FF90EF90DF9085
:102D3000CF90089578941F920F920FB60F9211249E
:102D40008F939F93AF93BF93809132029091330200
:102D5000A0913402B09135020196A11DB11D80935E
:102D6000320290933302A0933402B0933502BF91A4
:102D7000AF919F918F910F900FBE0F901F9018955C
:102D800081E08093E00080E28093D8001092C90037
:102D90008FE19EE40197F1F700C0000087E090EB1F
:102DA000DC018093450290934602A0934702B093C2
:102DB00048029CE088E10FB6F894A89580936000E3
:102DC0000FBE90936000FFCF0E94D114811102C00A
:102DD0000E944B150E94DC148093FC010E94E414B5
:102DE00090E090933702809336020E94E014682F9F
:102DF00070E080E090E00C944A120F931F9341E042
:102E000050E060E070E08A019B0104C0000F111FD8
:102E1000221F331F8A95D2F7C901B8010E944A12B6
:102E20001F910F910C943D0E482F50E0FA013597F9
:102E3000EF33F10508F06BC0E556FF4F0C94CF1E41
:102E40000E944B1560C08091FC01817F8E7F809332
:102E5000FC0181E08093FE0108950E943D0E2FEF5A
:102E600083ED90E3215080409040E1F700C00000E6
:102E70000E94C01648C08091FC01982F90959170D7
:102E800090FB80F98093FC0191113DC0897F877F81
:102E900010C08091FC0181FB222720F991E092274C
:102EA00090FB81F98093FC01992369F18091FC01E9
:102EB00081608093FC0127C08091FC0182FB222766
:102EC00020F991E0922790FB82F9ECCF8091FC01F0
:102ED00083FB222720F991E0922790FB83F9E2CF30
:102EE0000E943D0E8091360287FB222720F991E057
:102EF000922790FB87F98093360205C0895301C061
:102F00008D510E94FD1681E0089580E0FACF80E0A7
:102F1000089580E008950C948917CF93C82F80916D
:102F2000FE01882319F0813049F031C0E0910101A0
:102F3000F09102018081823261F507C0E0910101C8
:102F4000F09102018081823261F48C2F0E948B17F4
:102F5000811104C08C2F0E94141717C081E090E0EB
:102F600014C08C2F0E94891781110EC0C43149F002
:102F700018F4CB3049F00FC0C93219F0C83321F032
:102F80000AC01092FE0107C081E0817006C0109255
:102F9000FE0180E002C080E0F8CFCF9108958091DB
:102FA0001F02089508950F931F93CF93DF9300D0CE
:102FB0001F92CDB7DEB78C010E94141A823011F037
:102FC000843021F584E089831B830A8382E0809327
:102FD000E9008FEF9091E800815095FD06C095EDD6
:102FE0009A95F1F700008111F5CF8091E80085FFF7
:102FF0000DC040E050E063E070E0CE0101960E9419
:10300000311A8091E8008E778093E8000F900F903E
:103010000F90DF91CF911F910F910895CF93DF9380
:1030200000D01F92CDB7DEB720913C02243031F59D
:1030300023E02983805891099B838A8382E08093CF
:10304000E9008FEF9091E800815095FD06C095ED65
:103050009A95F1F700008111F5CF8091E80085FF86
:103060000DC040E050E063E070E0CE0101960E94A8
:10307000311A8091E8008E778093E8000F900F90CE
:103080000F90DF91CF910895CF93DF93EC010E94D1
:10309000141A823011F08430D9F580910D01882303
:1030A00039F08091360287FF03C060E282E002C0FF
:1030B00068E081E08093E9008FEF9091E800815013
:1030C00095FD06C095ED9A95F1F700008111F5CFB9
:1030D0008091E80085FF1CC080910D01811105C021
:1030E00040E050E068E070E003C070E040E050E095
:1030F000CE010E94311A8091E8008E778093E8001B
:1031000080E2FE01AFEFB1E001900D928A95E1F708
:10311000DF91CF91089580913B02811109C00E94F7
:10312000C21B0E941F1C8091E20084608093E20019
:10313000089510923B020895089508950C942A165C
:1031400042E061EC81E00E943B1B42E261EC82E0E4
:103150000C943B1B80913E02833009F460C030F434
:10316000813071F0823009F499C008958A3009F4F1
:1031700085C08B3009F46BC0893009F0A7C020C02E
:1031800080913D02813A09F0A1C08091E800877FDB
:103190008093E8008091410290914202892B21F4B2
:1031A00060E28FEF91E003C060E080E090E070E0CB
:1031B0000E947C1A8091E8008B778093E800089544
:1031C00080913D02813209F081C08091410290914D
:1031D0004202029708F07AC08091E800877F8093CE
:1031E000E8008091E80082FD05C080913C028111D9
:1031F000F8CF6CC02091F3008091F20090E0922B08
:10320000029729F48091F1008B7F813021F4809125
:10321000F10080931F028091E8008B7753C080916A
:103220003D02813A09F052C08091410290914202E0
:10323000892B09F04BC08091E800877F8093E800DC
:103240008091E80080FFFCCF80910D0136C0809115
:103250003D028132D9F58091410290914202892B41
:10326000A9F58091E800877F8093E8000E94701B99
:1032700080913F0280930D010C943D0E80913D02A0
:10328000813221F58091E800877F8093E8000E94D9
:10329000701B8091400280932002089580913D022E
:1032A000813AA1F48091E800877F8093E8008091C3
:1032B000E80080FFFCCF809120028093F100809194
:1032C000E8008E778093E8000C94701B089584B713
:1032D000877F84BF0FB6F894A895809160008861BD
:1032E00080936000109260000FBE80E880936100C0
:1032F000109261000E945C090E94C21B0E941F1C68
:103300008091E20084608093E20078940E94B41E71
:103310000E94640983E091E00E94F70880913C02DA
:10332000853069F40E94F81580913A028823B1F340
:103330000E94E015882391F30E941B1AEFCF0E9490
:103340007109ECCF0C94A419292F332723303105B0
:10335000C9F060F42130310581F02230310509F0E7
:103360004AC08BE390E020EC32E049C021323105C5
:1033700011F12232310579F13EC082E190E02BEF6C
:1033800032E03DC099278130910561F040F08230F4
:10339000910559F0039779F5E8E8F2E008C0ECEB05
:1033A000F2E005C0EEE9F2E002C0EEE8F2E084915E
:1033B00090E09F0124C06115710541F061307105F5
:1033C000D1F489E090E02BEE32E019C089E090E082
:1033D00022ED32E014C06115710541F061307105D4
:1033E00051F481E790E02DE033E009C080E490E003
:1033F0002EE733E004C080E090E020E030E0FA0106
:103400003183208308950895CF93C82F0E94031A13
:10341000C0932102CF91089580913C02843011F035
:1034200081E0089582E0089580912102811102C017
:103430000C940C1A089580E189BD82E189BD09B41C
:1034400000FEFDCF8091D8008F7D8093D8008091C1
:10345000E00082608093E0008091E00081FDFCCF7D
:103460000895CF92DF92EF92FF920F931F93CF9325
:10347000DF93EC018B017A010E948F1B811133C015
:10348000E114F10439F0F70180819181081B190BD7
:10349000C80FD91FC12CD12C0115110519F180912C
:1034A000E80085FD16C08091E8008E778093E800E3
:1034B000E114F10449F0F70180819181C80ED91E11
:1034C000D182C08285E00FC00E948F1B882321F328
:1034D0000AC089918093F10001501109FFEFCF1AC2
:1034E000DF0ADACF80E0DF91CF911F910F91FF903B
:1034F000EF90DF90CF9008952091430230914402E5
:103500002617370748F06115710539F42091E80056
:103510002E772093E80001C0B901FC0120E061157D
:10352000710579F180913C028823F1F18530F1F148
:103530008091E80083FD3CC08091E80082FD2EC0B0
:103540008091E80080FFEBCF2091F3008091F200A2
:1035500090E0922B6115710551F08830910538F497
:1035600021912093F100615071090196F3CF21E080
:10357000089709F020E08091E8008E778093E800BA
:10358000CECF2111CFCF0AC080913C02882361F0B9
:10359000853061F08091E80083FD0AC08091E800E9
:1035A00082FFF2CF80E0089582E0089583E00895DD
:1035B00081E0089520914302309144022617370795
:1035C00048F06115710539F42091E8002E772093B9
:1035D000E80001C0B901FC0120E06115710591F11D
:1035E00080913C02882309F440C0853009F43FC033
:1035F0008091E80083FD3DC08091E80082FD2FC0EE
:103600008091E80080FFE9CF2091F3008091F200E3
:1036100090E0922B6115710559F08830910540F4C6
:1036200024912093F1003196615071090196F2CFF7
:1036300021E0089709F020E08091E8008E778093E0
:10364000E800CBCF2111CCCF0AC080913C02882367
:1036500061F0853061F08091E80083FD0AC08091BF
:10366000E80082FFF2CF80E0089582E0089583E0D1
:10367000089581E00895982F973068F59093E900B8
:10368000981739F07091EC002091ED005091F00006
:1036900003C0242F762F50E021FD02C09F5FECCFA6
:1036A0003091EB003E7F3093EB003091ED003D7F99
:1036B0003093ED003091EB0031603093EB0070936C
:1036C000EC002093ED005093F0002091EE0027FDD8
:1036D000E5CF80E008958F708093E90081E0089540
:1036E00080913D0287FF11C08091E80082FD05C0F6
:1036F00080913C028111F8CF11C08091E8008B7756
:103700000BC080913C02882349F08091E80080FF43
:10371000F8CF8091E8008E778093E800089520919B
:10372000E4003091E50095E64091EC00842F817033
:1037300040FF23C08091E80080FD1DC080913C02C5
:10374000882399F0853099F08091EB0085FD11C0B8
:103750004091E4005091E5002417350729F391507A
:1037600011F09A01E1CF84E0089582E0089583E0AA
:10377000089581E0089580E008954091E80042FFB7
:10378000DDCF08950E94301C0E94381CE0EEF0E06E
:10379000808181608083E8EDF0E080818F77808395
:1037A00019BCA7EDB0E08C918E7F8C9380818F7EC9
:1037B000808310923B0208950F931F93CF93DF9362
:1037C0000E94301C0E94381CC8EDD0E088818F77A1
:1037D000888388818068888388818F7D888319BCED
:1037E00010923C021092380210923A021092390262
:1037F00000EE10E0F80180818B7F808388818160FA
:10380000888342E060E080E00E943B1BE1EEF0E054
:1038100080818E7F8083E2EEF0E080818160808312
:10382000808188608083F80180818E7F8083888199
:1038300080618883DF91CF911F910F910895E8ED0A
:10384000F0E080818F7E8083E7EDF0E08081816011
:10385000808384E082BF81E080933B020C94DC1B78
:10386000E8EDF0E080818E7F80831092E200089581
:103870001092DA001092E10008951F920F920FB695
:103880000F9211242F933F934F935F936F937F93E6
:103890008F939F93AF93BF93EF93FF938091E1003A
:1038A00082FF0BC08091E20082FF07C08091E1009F
:1038B0008B7F8093E1000E94B31E8091DA0080FF2D
:1038C0001FC08091D80080FF1BC08091DA008E7FDE
:1038D0008093DA008091D90080FF0DC080E189BD1E
:1038E00082E189BD09B400FEFDCF81E080933C02F6
:1038F0000E948B1805C019BC10923C020E949918B6
:103900008091E10080FF19C08091E20080FF15C026
:103910008091E2008E7F8093E2008091E2008061DE
:103920008093E2008091D80080628093D80019BC17
:1039300085E080933C020E949D188091E10084FF05
:1039400030C08091E20084FF2CC080E189BD82E11B
:1039500089BD09B400FEFDCF8091D8008F7D809392
:10396000D8008091E1008F7E8093E1008091E20099
:103970008F7E8093E2008091E20081608093E2007C
:1039800080913802882311F084E007C08091E30021
:1039900087FD02C081E001C083E080933C020E9469
:1039A0009E188091E10083FF29C08091E20083FF8F
:1039B00025C08091E100877F8093E10082E08093C1
:1039C0003C02109238028091E1008E7F8093E100EA
:1039D0008091E2008E7F8093E2008091E20080611E
:1039E0008093E20042E060E080E00E943B1B809117
:1039F000F00088608093F0000E949C18FF91EF9186
:103A0000BF91AF919F918F917F916F915F914F91F6
:103A10003F912F910F900FBE0F901F9018951F92FE
:103A20000F920FB60F9211242F933F934F935F93F2
:103A30006F937F938F939F93AF93BF93CF93DF93B6
:103A4000EF93FF93C091E900CF708091EC00D82FE5
:103A5000D17080FDD0E81092E9008091F000877F5E
:103A60008093F00078940E94531D1092E900809199
:103A7000F00088608093F000CD2BCF70C093E900F8
:103A8000FF91EF91DF91CF91BF91AF919F918F9176
:103A90007F916F915F914F913F912F910F900FBE4A
:103AA0000F901F9018951F93CF93DF93CDB7DEB77C
:103AB000AA970FB6F894DEBF0FBECDBFEDE3F2E0DC
:103AC0008091F100819322E0E534F207C9F70E946A
:103AD000AA188091E80083FF2EC180913D02909149
:103AE0003E02492F50E04A30510508F024C1FA0146
:103AF000E652FF4F0C94CF1E803821F0823809F037
:103B00001AC108C08091390290913A02992389F034
:103B100082600FC0809141028F70873008F00BC126
:103B20008093E9008091EB0085FB882780F9109253
:103B3000E9009091E800977F9093E8008093F1006E
:103B40001092F100D1C0282F2D7F09F0F4C08823F6
:103B500019F0823061F0EFC080913F02813009F0AE
:103B6000EAC0933009F080E080933A022EC0809141
:103B70003F0281112AC0809141028F702FEF280FE0
:103B8000263008F0D8C08093E9002091EB0020FF98
:103B90001CC0933021F48091EB00806214C090919E
:103BA000EB0090619093EB0021E030E0A90102C0AE
:103BB000440F551F8A95E2F74093EA001092EA00FD
:103BC0008091EB0088608093EB001092E900809177
:103BD000E800877F8093E8000E94701BACC08111D1
:103BE000AAC010913F021F778091E3008078812B5B
:103BF0008093E3008091E800877F8093E8000E9433
:103C0000701B8091E80080FFFCCF8091E30080680A
:103C10008093E300111102C082E001C083E0809331
:103C20003C0289C08058823008F085C080913F02F4
:103C3000909140028C3D53E0950779F583E08A83AB
:103C40008AE289834FB7F894DE01139620E03EE0C4
:103C500051E2E32FF0E050935700E49120FF03C0BE
:103C6000E295EF703F5FEF708E2F90E0EA3010F03A
:103C7000C79601C0C0968D939D932F5F243149F75D
:103C80004FBF8091E800877F8093E8006AE270E090
:103C9000CE0101960E947C1A16C06091410270917B
:103CA0004202AE014F5F5F4F0E94A219BC01892BF7
:103CB00009F441C09091E800977F9093E8008981D2
:103CC0009A810E94DA1A8091E8008B778093E8004D
:103CD00032C0803881F58091E800877F8093E800CA
:103CE000809138028093F1008091E8008E7772CF46
:103CF000811121C080913F02909140029927029743
:103D0000D4F48091E800877F8093E80080913F029F
:103D1000809338020E94701B80913802811106C086
:103D20008091E30087FD02C081E001C084E08093C0
:103D30003C020E94A0188091E80083FF0AC0809195
:103D4000E800877F8093E8008091EB008062809399
:103D5000EB00AA960FB6F894DEBF0FBECDBFDF9181
:103D6000CF911F9108950895CF9380913C028823AD
:103D7000A1F0C091E900CF709091EC00892F817083
:103D800090FD80E8C82B1092E9008091E80083FD47
:103D90000E94531DCF70C093E900CF910895EE0F9C
:103DA000FF1F0590F491E02D0994F999FECF92BD83
:103DB00081BDF89A992780B50895A8E1B0E042E066
:103DC00050E00C94091F262FF999FECF92BD81BDBA
:103DD000F89A019700B4021639F01FBA20BD0FB649
:103DE000F894FA9AF99A0FBE08950396272F0E9425
:103DF000E41E0E94E31E252F0E94E41E242F0C9433
:103E0000E41E0196272F0E94E41E0C94E31EDC01A1
:103E1000CB01FC01F999FECF06C0F2BDE1BDF89AD5
:103E2000319600B40D9241505040B8F70895F8947F
:023E3000FFCFC2
:103E320001D901CF174418D2170E18D31701363201
:103E42003331F7F6F5F4946697C634350000000076
:023E520000006E
:00000001FF
